{
  "_format": "hh-sol-artifact-1",
  "contractName": "ERC1155PresetMinterPauser",
  "sourceName": "contracts/ERC1155/presets/ERC1155PresetMinterPauser.sol",
  "abi": [
    {
      "inputs": [
        {
          "internalType": "string",
          "name": "uri",
          "type": "string"
        }
      ],
      "stateMutability": "nonpayable",
      "type": "constructor"
    },
    {
      "anonymous": false,
      "inputs": [
        {
          "indexed": true,
          "internalType": "address",
          "name": "account",
          "type": "address"
        },
        {
          "indexed": true,
          "internalType": "address",
          "name": "operator",
          "type": "address"
        },
        {
          "indexed": false,
          "internalType": "bool",
          "name": "approved",
          "type": "bool"
        }
      ],
      "name": "ApprovalForAll",
      "type": "event"
    },
    {
      "anonymous": false,
      "inputs": [
        {
          "indexed": false,
          "internalType": "address",
          "name": "account",
          "type": "address"
        }
      ],
      "name": "Paused",
      "type": "event"
    },
    {
      "anonymous": false,
      "inputs": [
        {
          "indexed": true,
          "internalType": "bytes32",
          "name": "role",
          "type": "bytes32"
        },
        {
          "indexed": true,
          "internalType": "bytes32",
          "name": "previousAdminRole",
          "type": "bytes32"
        },
        {
          "indexed": true,
          "internalType": "bytes32",
          "name": "newAdminRole",
          "type": "bytes32"
        }
      ],
      "name": "RoleAdminChanged",
      "type": "event"
    },
    {
      "anonymous": false,
      "inputs": [
        {
          "indexed": true,
          "internalType": "bytes32",
          "name": "role",
          "type": "bytes32"
        },
        {
          "indexed": true,
          "internalType": "address",
          "name": "account",
          "type": "address"
        },
        {
          "indexed": true,
          "internalType": "address",
          "name": "sender",
          "type": "address"
        }
      ],
      "name": "RoleGranted",
      "type": "event"
    },
    {
      "anonymous": false,
      "inputs": [
        {
          "indexed": true,
          "internalType": "bytes32",
          "name": "role",
          "type": "bytes32"
        },
        {
          "indexed": true,
          "internalType": "address",
          "name": "account",
          "type": "address"
        },
        {
          "indexed": true,
          "internalType": "address",
          "name": "sender",
          "type": "address"
        }
      ],
      "name": "RoleRevoked",
      "type": "event"
    },
    {
      "anonymous": false,
      "inputs": [
        {
          "indexed": true,
          "internalType": "address",
          "name": "operator",
          "type": "address"
        },
        {
          "indexed": true,
          "internalType": "address",
          "name": "from",
          "type": "address"
        },
        {
          "indexed": true,
          "internalType": "address",
          "name": "to",
          "type": "address"
        },
        {
          "indexed": false,
          "internalType": "uint256[]",
          "name": "ids",
          "type": "uint256[]"
        },
        {
          "indexed": false,
          "internalType": "uint256[]",
          "name": "values",
          "type": "uint256[]"
        }
      ],
      "name": "TransferBatch",
      "type": "event"
    },
    {
      "anonymous": false,
      "inputs": [
        {
          "indexed": true,
          "internalType": "address",
          "name": "operator",
          "type": "address"
        },
        {
          "indexed": true,
          "internalType": "address",
          "name": "from",
          "type": "address"
        },
        {
          "indexed": true,
          "internalType": "address",
          "name": "to",
          "type": "address"
        },
        {
          "indexed": false,
          "internalType": "uint256",
          "name": "id",
          "type": "uint256"
        },
        {
          "indexed": false,
          "internalType": "uint256",
          "name": "value",
          "type": "uint256"
        }
      ],
      "name": "TransferSingle",
      "type": "event"
    },
    {
      "anonymous": false,
      "inputs": [
        {
          "indexed": false,
          "internalType": "string",
          "name": "value",
          "type": "string"
        },
        {
          "indexed": true,
          "internalType": "uint256",
          "name": "id",
          "type": "uint256"
        }
      ],
      "name": "URI",
      "type": "event"
    },
    {
      "anonymous": false,
      "inputs": [
        {
          "indexed": false,
          "internalType": "address",
          "name": "account",
          "type": "address"
        }
      ],
      "name": "Unpaused",
      "type": "event"
    },
    {
      "inputs": [],
      "name": "DEFAULT_ADMIN_ROLE",
      "outputs": [
        {
          "internalType": "bytes32",
          "name": "",
          "type": "bytes32"
        }
      ],
      "stateMutability": "view",
      "type": "function"
    },
    {
      "inputs": [],
      "name": "MINTER_ROLE",
      "outputs": [
        {
          "internalType": "bytes32",
          "name": "",
          "type": "bytes32"
        }
      ],
      "stateMutability": "view",
      "type": "function"
    },
    {
      "inputs": [],
      "name": "PAUSER_ROLE",
      "outputs": [
        {
          "internalType": "bytes32",
          "name": "",
          "type": "bytes32"
        }
      ],
      "stateMutability": "view",
      "type": "function"
    },
    {
      "inputs": [
        {
          "internalType": "address",
          "name": "account",
          "type": "address"
        },
        {
          "internalType": "uint256",
          "name": "id",
          "type": "uint256"
        }
      ],
      "name": "balanceOf",
      "outputs": [
        {
          "internalType": "uint256",
          "name": "",
          "type": "uint256"
        }
      ],
      "stateMutability": "view",
      "type": "function"
    },
    {
      "inputs": [
        {
          "internalType": "address[]",
          "name": "accounts",
          "type": "address[]"
        },
        {
          "internalType": "uint256[]",
          "name": "ids",
          "type": "uint256[]"
        }
      ],
      "name": "balanceOfBatch",
      "outputs": [
        {
          "internalType": "uint256[]",
          "name": "",
          "type": "uint256[]"
        }
      ],
      "stateMutability": "view",
      "type": "function"
    },
    {
      "inputs": [
        {
          "internalType": "address",
          "name": "account",
          "type": "address"
        },
        {
          "internalType": "uint256",
          "name": "id",
          "type": "uint256"
        },
        {
          "internalType": "uint256",
          "name": "value",
          "type": "uint256"
        }
      ],
      "name": "burn",
      "outputs": [],
      "stateMutability": "nonpayable",
      "type": "function"
    },
    {
      "inputs": [
        {
          "internalType": "address",
          "name": "account",
          "type": "address"
        },
        {
          "internalType": "uint256[]",
          "name": "ids",
          "type": "uint256[]"
        },
        {
          "internalType": "uint256[]",
          "name": "values",
          "type": "uint256[]"
        }
      ],
      "name": "burnBatch",
      "outputs": [],
      "stateMutability": "nonpayable",
      "type": "function"
    },
    {
      "inputs": [
        {
          "internalType": "bytes32",
          "name": "role",
          "type": "bytes32"
        }
      ],
      "name": "getRoleAdmin",
      "outputs": [
        {
          "internalType": "bytes32",
          "name": "",
          "type": "bytes32"
        }
      ],
      "stateMutability": "view",
      "type": "function"
    },
    {
      "inputs": [
        {
          "internalType": "bytes32",
          "name": "role",
          "type": "bytes32"
        },
        {
          "internalType": "uint256",
          "name": "index",
          "type": "uint256"
        }
      ],
      "name": "getRoleMember",
      "outputs": [
        {
          "internalType": "address",
          "name": "",
          "type": "address"
        }
      ],
      "stateMutability": "view",
      "type": "function"
    },
    {
      "inputs": [
        {
          "internalType": "bytes32",
          "name": "role",
          "type": "bytes32"
        }
      ],
      "name": "getRoleMemberCount",
      "outputs": [
        {
          "internalType": "uint256",
          "name": "",
          "type": "uint256"
        }
      ],
      "stateMutability": "view",
      "type": "function"
    },
    {
      "inputs": [
        {
          "internalType": "bytes32",
          "name": "role",
          "type": "bytes32"
        },
        {
          "internalType": "address",
          "name": "account",
          "type": "address"
        }
      ],
      "name": "grantRole",
      "outputs": [],
      "stateMutability": "nonpayable",
      "type": "function"
    },
    {
      "inputs": [
        {
          "internalType": "bytes32",
          "name": "role",
          "type": "bytes32"
        },
        {
          "internalType": "address",
          "name": "account",
          "type": "address"
        }
      ],
      "name": "hasRole",
      "outputs": [
        {
          "internalType": "bool",
          "name": "",
          "type": "bool"
        }
      ],
      "stateMutability": "view",
      "type": "function"
    },
    {
      "inputs": [
        {
          "internalType": "address",
          "name": "account",
          "type": "address"
        },
        {
          "internalType": "address",
          "name": "operator",
          "type": "address"
        }
      ],
      "name": "isApprovedForAll",
      "outputs": [
        {
          "internalType": "bool",
          "name": "",
          "type": "bool"
        }
      ],
      "stateMutability": "view",
      "type": "function"
    },
    {
      "inputs": [
        {
          "internalType": "address",
          "name": "to",
          "type": "address"
        },
        {
          "internalType": "uint256",
          "name": "id",
          "type": "uint256"
        },
        {
          "internalType": "uint256",
          "name": "amount",
          "type": "uint256"
        },
        {
          "internalType": "bytes",
          "name": "data",
          "type": "bytes"
        }
      ],
      "name": "mint",
      "outputs": [],
      "stateMutability": "nonpayable",
      "type": "function"
    },
    {
      "inputs": [
        {
          "internalType": "address",
          "name": "to",
          "type": "address"
        },
        {
          "internalType": "uint256[]",
          "name": "ids",
          "type": "uint256[]"
        },
        {
          "internalType": "uint256[]",
          "name": "amounts",
          "type": "uint256[]"
        },
        {
          "internalType": "bytes",
          "name": "data",
          "type": "bytes"
        }
      ],
      "name": "mintBatch",
      "outputs": [],
      "stateMutability": "nonpayable",
      "type": "function"
    },
    {
      "inputs": [],
      "name": "pause",
      "outputs": [],
      "stateMutability": "nonpayable",
      "type": "function"
    },
    {
      "inputs": [],
      "name": "paused",
      "outputs": [
        {
          "internalType": "bool",
          "name": "",
          "type": "bool"
        }
      ],
      "stateMutability": "view",
      "type": "function"
    },
    {
      "inputs": [
        {
          "internalType": "bytes32",
          "name": "role",
          "type": "bytes32"
        },
        {
          "internalType": "address",
          "name": "account",
          "type": "address"
        }
      ],
      "name": "renounceRole",
      "outputs": [],
      "stateMutability": "nonpayable",
      "type": "function"
    },
    {
      "inputs": [
        {
          "internalType": "bytes32",
          "name": "role",
          "type": "bytes32"
        },
        {
          "internalType": "address",
          "name": "account",
          "type": "address"
        }
      ],
      "name": "revokeRole",
      "outputs": [],
      "stateMutability": "nonpayable",
      "type": "function"
    },
    {
      "inputs": [
        {
          "internalType": "address",
          "name": "from",
          "type": "address"
        },
        {
          "internalType": "address",
          "name": "to",
          "type": "address"
        },
        {
          "internalType": "uint256[]",
          "name": "ids",
          "type": "uint256[]"
        },
        {
          "internalType": "uint256[]",
          "name": "amounts",
          "type": "uint256[]"
        },
        {
          "internalType": "bytes",
          "name": "data",
          "type": "bytes"
        }
      ],
      "name": "safeBatchTransferFrom",
      "outputs": [],
      "stateMutability": "nonpayable",
      "type": "function"
    },
    {
      "inputs": [
        {
          "internalType": "address",
          "name": "from",
          "type": "address"
        },
        {
          "internalType": "address",
          "name": "to",
          "type": "address"
        },
        {
          "internalType": "uint256",
          "name": "id",
          "type": "uint256"
        },
        {
          "internalType": "uint256",
          "name": "amount",
          "type": "uint256"
        },
        {
          "internalType": "bytes",
          "name": "data",
          "type": "bytes"
        }
      ],
      "name": "safeTransferFrom",
      "outputs": [],
      "stateMutability": "nonpayable",
      "type": "function"
    },
    {
      "inputs": [
        {
          "internalType": "address",
          "name": "operator",
          "type": "address"
        },
        {
          "internalType": "bool",
          "name": "approved",
          "type": "bool"
        }
      ],
      "name": "setApprovalForAll",
      "outputs": [],
      "stateMutability": "nonpayable",
      "type": "function"
    },
    {
      "inputs": [
        {
          "internalType": "bytes4",
          "name": "interfaceId",
          "type": "bytes4"
        }
      ],
      "name": "supportsInterface",
      "outputs": [
        {
          "internalType": "bool",
          "name": "",
          "type": "bool"
        }
      ],
      "stateMutability": "view",
      "type": "function"
    },
    {
      "inputs": [],
      "name": "unpause",
      "outputs": [],
      "stateMutability": "nonpayable",
      "type": "function"
    },
    {
      "inputs": [
        {
          "internalType": "uint256",
          "name": "id",
          "type": "uint256"
        }
      ],
      "name": "uri",
      "outputs": [
        {
          "internalType": "string",
          "name": "",
          "type": "string"
        }
      ],
      "stateMutability": "view",
      "type": "function"
    }
  ],
  "bytecode": "0x60806040523480156200001157600080fd5b5060405162004ec538038062004ec5833981810160405281019062000037919062000407565b6000600560006101000a81548160ff021916908315150217905550620000766000801b6200006a620000ff60201b60201c565b6200010760201b60201c565b620000b77f9f2df0fed2c77648de5860a4cc508cd0818c85b8b8a1ab4ceeef8d981c8956a6620000ab620000ff60201b60201c565b6200010760201b60201c565b620000f87f65d7a28e3265b37a6474929f336521b332c1681b933f6cb9f3376673440d862a620000ec620000ff60201b60201c565b6200010760201b60201c565b5062000518565b600033905090565b6200011e82826200014f60201b620016281760201c565b6200014a81600160008581526020019081526020016000206200016560201b620016361790919060201c565b505050565b6200016182826200019d60201b60201c565b5050565b600062000195836000018373ffffffffffffffffffffffffffffffffffffffff1660001b6200028e60201b60201c565b905092915050565b620001af82826200030860201b60201c565b6200028a57600160008084815260200190815260200160002060000160008373ffffffffffffffffffffffffffffffffffffffff1673ffffffffffffffffffffffffffffffffffffffff16815260200190815260200160002060006101000a81548160ff0219169083151502179055506200022f620000ff60201b60201c565b73ffffffffffffffffffffffffffffffffffffffff168173ffffffffffffffffffffffffffffffffffffffff16837f2f8788117e7eff1d82e926ec794901d17c78024a50270940304540a733656f0d60405160405180910390a45b5050565b6000620002a283836200037260201b60201c565b620002fd57826000018290806001815401808255809150506001900390600052602060002001600090919091909150558260000180549050836001016000848152602001908152602001600020819055506001905062000302565b600090505b92915050565b600080600084815260200190815260200160002060000160008373ffffffffffffffffffffffffffffffffffffffff1673ffffffffffffffffffffffffffffffffffffffff16815260200190815260200160002060009054906101000a900460ff16905092915050565b600080836001016000848152602001908152602001600020541415905092915050565b6000620003ac620003a68462000480565b6200044c565b905082815260208101848484011115620003c557600080fd5b620003d2848285620004b3565b509392505050565b600082601f830112620003ec57600080fd5b8151620003fe84826020860162000395565b91505092915050565b6000602082840312156200041a57600080fd5b600082015167ffffffffffffffff8111156200043557600080fd5b6200044384828501620003da565b91505092915050565b6000604051905081810181811067ffffffffffffffff82111715620004765762000475620004e9565b5b8060405250919050565b600067ffffffffffffffff8211156200049e576200049d620004e9565b5b601f19601f8301169050602081019050919050565b60005b83811015620004d3578082015181840152602081019050620004b6565b83811115620004e3576000848401525b50505050565b7f4e487b7100000000000000000000000000000000000000000000000000000000600052604160045260246000fd5b61499d80620005286000396000f3fe608060405234801561001057600080fd5b50600436106101725760003560e01c8063731133e9116100de578063ca15c87311610097578063e63ab1e911610071578063e63ab1e914610445578063e985e9c514610463578063f242432a14610493578063f5298aca146104af57610172565b8063ca15c873146103db578063d53913931461040b578063d547741f1461042957610172565b8063731133e91461031b5780638456cb59146103375780639010d07c1461034157806391d1485414610371578063a217fddf146103a1578063a22cb465146103bf57610172565b80632f2ff15d116101305780632f2ff15d1461026f57806336568abe1461028b5780633f4ba83a146102a75780634e1273f4146102b15780635c975abb146102e15780636b20c454146102ff57610172565b8062fdd58e1461017757806301ffc9a7146101a75780630e89341c146101d75780631f7fdffa14610207578063248a9ca3146102235780632eb2c2d614610253575b600080fd5b610191600480360381019061018c9190613353565b6104cb565b60405161019e9190614460565b60405180910390f35b6101c160048036038101906101bc9190613566565b610595565b6040516101ce9190614128565b60405180910390f35b6101f160048036038101906101ec91906135b8565b6105a7565b6040516101fe919061415e565b60405180910390f35b610221600480360381019061021c919061326c565b61064c565b005b61023d600480360381019061023891906134c5565b6106ce565b60405161024a9190614143565b60405180910390f35b61026d6004803603810190610268919061309f565b6106ed565b005b610289600480360381019061028491906134ee565b610ae6565b005b6102a560048036038101906102a091906134ee565b610b1a565b005b6102af610b4e565b005b6102cb60048036038101906102c69190613459565b610bc8565b6040516102d891906140cf565b60405180910390f35b6102e9610d79565b6040516102f69190614128565b60405180910390f35b610319600480360381019061031491906131ed565b610d90565b005b610335600480360381019061033091906133de565b610e2d565b005b61033f610eaf565b005b61035b6004803603810190610356919061352a565b610f29565b6040516103689190613ff2565b60405180910390f35b61038b600480360381019061038691906134ee565b610f58565b6040516103989190614128565b60405180910390f35b6103a9610fc2565b6040516103b69190614143565b60405180910390f35b6103d960048036038101906103d49190613317565b610fc9565b005b6103f560048036038101906103f091906134c5565b61114a565b6040516104029190614460565b60405180910390f35b61041361116e565b6040516104209190614143565b60405180910390f35b610443600480360381019061043e91906134ee565b611192565b005b61044d6111c6565b60405161045a9190614143565b60405180910390f35b61047d60048036038101906104789190613063565b6111ea565b60405161048a9190614128565b60405180910390f35b6104ad60048036038101906104a8919061315e565b61127e565b005b6104c960048036038101906104c4919061338f565b61158b565b005b60008073ffffffffffffffffffffffffffffffffffffffff168373ffffffffffffffffffffffffffffffffffffffff16141561053c576040517f08c379a000000000000000000000000000000000000000000000000000000000815260040161053390614220565b60405180910390fd5b6002600083815260200190815260200160002060008473ffffffffffffffffffffffffffffffffffffffff1673ffffffffffffffffffffffffffffffffffffffff16815260200190815260200160002054905092915050565b60006105a082611666565b9050919050565b60606004600083815260200190815260200160002080546105c790614718565b80601f01602080910402602001604051908101604052809291908181526020018280546105f390614718565b80156106405780601f1061061557610100808354040283529160200191610640565b820191906000526020600020905b81548152906001019060200180831161062357829003601f168201915b50505050509050919050565b61067d7f9f2df0fed2c77648de5860a4cc508cd0818c85b8b8a1ab4ceeef8d981c8956a6610678611748565b610f58565b6106bc576040517f08c379a00000000000000000000000000000000000000000000000000000000081526004016106b390614340565b60405180910390fd5b6106c884848484611750565b50505050565b6000806000838152602001908152602001600020600101549050919050565b8151835114610731576040517f08c379a000000000000000000000000000000000000000000000000000000000815260040161072890614400565b60405180910390fd5b600073ffffffffffffffffffffffffffffffffffffffff168473ffffffffffffffffffffffffffffffffffffffff1614156107a1576040517f08c379a0000000000000000000000000000000000000000000000000000000008152600401610798906142e0565b60405180910390fd5b6107a9611748565b73ffffffffffffffffffffffffffffffffffffffff168573ffffffffffffffffffffffffffffffffffffffff1614806107ef57506107ee856107e9611748565b6111ea565b5b61082e576040517f08c379a000000000000000000000000000000000000000000000000000000000815260040161082590614300565b60405180910390fd5b6000610838611748565b90506108488187878787876119bb565b60005b8451811015610a5157600085828151811061088f577f4e487b7100000000000000000000000000000000000000000000000000000000600052603260045260246000fd5b6020026020010151905060008583815181106108d4577f4e487b7100000000000000000000000000000000000000000000000000000000600052603260045260246000fd5b6020026020010151905060006002600084815260200190815260200160002060008b73ffffffffffffffffffffffffffffffffffffffff1673ffffffffffffffffffffffffffffffffffffffff16815260200190815260200160002054905081811015610976576040517f08c379a000000000000000000000000000000000000000000000000000000000815260040161096d90614360565b60405180910390fd5b81816109829190614624565b6002600085815260200190815260200160002060008c73ffffffffffffffffffffffffffffffffffffffff1673ffffffffffffffffffffffffffffffffffffffff16815260200190815260200160002081905550816002600085815260200190815260200160002060008b73ffffffffffffffffffffffffffffffffffffffff1673ffffffffffffffffffffffffffffffffffffffff1681526020019081526020016000206000828254610a3691906145ce565b9250508190555050505080610a4a9061474a565b905061084b565b508473ffffffffffffffffffffffffffffffffffffffff168673ffffffffffffffffffffffffffffffffffffffff168273ffffffffffffffffffffffffffffffffffffffff167f4a39dc06d4c0dbc64b70af90fd698a233a518aa5d07e595d983b8c0526c8f7fb8787604051610ac89291906140f1565b60405180910390a4610ade8187878787876119d1565b505050505050565b610af08282611ba1565b610b15816001600085815260200190815260200160002061163690919063ffffffff16565b505050565b610b248282611c07565b610b498160016000858152602001908152602001600020611c8a90919063ffffffff16565b505050565b610b7f7f65d7a28e3265b37a6474929f336521b332c1681b933f6cb9f3376673440d862a610b7a611748565b610f58565b610bbe576040517f08c379a0000000000000000000000000000000000000000000000000000000008152600401610bb590614380565b60405180910390fd5b610bc6611cba565b565b60608151835114610c0e576040517f08c379a0000000000000000000000000000000000000000000000000000000008152600401610c05906143e0565b60405180910390fd5b6000835167ffffffffffffffff811115610c51577f4e487b7100000000000000000000000000000000000000000000000000000000600052604160045260246000fd5b604051908082528060200260200182016040528015610c7f5781602001602082028036833780820191505090505b50905060005b8451811015610d6e57610d18858281518110610cca577f4e487b7100000000000000000000000000000000000000000000000000000000600052603260045260246000fd5b6020026020010151858381518110610d0b577f4e487b7100000000000000000000000000000000000000000000000000000000600052603260045260246000fd5b60200260200101516104cb565b828281518110610d51577f4e487b7100000000000000000000000000000000000000000000000000000000600052603260045260246000fd5b60200260200101818152505080610d679061474a565b9050610c85565b508091505092915050565b6000600560009054906101000a900460ff16905090565b610d98611748565b73ffffffffffffffffffffffffffffffffffffffff168373ffffffffffffffffffffffffffffffffffffffff161480610dde5750610ddd83610dd8611748565b6111ea565b5b610e1d576040517f08c379a0000000000000000000000000000000000000000000000000000000008152600401610e1490614280565b60405180910390fd5b610e28838383611d5c565b505050565b610e5e7f9f2df0fed2c77648de5860a4cc508cd0818c85b8b8a1ab4ceeef8d981c8956a6610e59611748565b610f58565b610e9d576040517f08c379a0000000000000000000000000000000000000000000000000000000008152600401610e9490614340565b60405180910390fd5b610ea984848484612064565b50505050565b610ee07f65d7a28e3265b37a6474929f336521b332c1681b933f6cb9f3376673440d862a610edb611748565b610f58565b610f1f576040517f08c379a0000000000000000000000000000000000000000000000000000000008152600401610f16906143a0565b60405180910390fd5b610f276121fb565b565b6000610f50826001600086815260200190815260200160002061229e90919063ffffffff16565b905092915050565b600080600084815260200190815260200160002060000160008373ffffffffffffffffffffffffffffffffffffffff1673ffffffffffffffffffffffffffffffffffffffff16815260200190815260200160002060009054906101000a900460ff16905092915050565b6000801b81565b8173ffffffffffffffffffffffffffffffffffffffff16610fe8611748565b73ffffffffffffffffffffffffffffffffffffffff16141561103f576040517f08c379a0000000000000000000000000000000000000000000000000000000008152600401611036906143c0565b60405180910390fd5b806003600061104c611748565b73ffffffffffffffffffffffffffffffffffffffff1673ffffffffffffffffffffffffffffffffffffffff16815260200190815260200160002060008473ffffffffffffffffffffffffffffffffffffffff1673ffffffffffffffffffffffffffffffffffffffff16815260200190815260200160002060006101000a81548160ff0219169083151502179055508173ffffffffffffffffffffffffffffffffffffffff166110f9611748565b73ffffffffffffffffffffffffffffffffffffffff167f17307eab39ab6107e8899845ad3d59bd9653f200f220920489ca2b5937696c318360405161113e9190614128565b60405180910390a35050565b6000611167600160008481526020019081526020016000206122b8565b9050919050565b7f9f2df0fed2c77648de5860a4cc508cd0818c85b8b8a1ab4ceeef8d981c8956a681565b61119c82826122cd565b6111c18160016000858152602001908152602001600020611c8a90919063ffffffff16565b505050565b7f65d7a28e3265b37a6474929f336521b332c1681b933f6cb9f3376673440d862a81565b6000600360008473ffffffffffffffffffffffffffffffffffffffff1673ffffffffffffffffffffffffffffffffffffffff16815260200190815260200160002060008373ffffffffffffffffffffffffffffffffffffffff1673ffffffffffffffffffffffffffffffffffffffff16815260200190815260200160002060009054906101000a900460ff16905092915050565b600073ffffffffffffffffffffffffffffffffffffffff168473ffffffffffffffffffffffffffffffffffffffff1614156112ee576040517f08c379a00000000000000000000000000000000000000000000000000000000081526004016112e5906142e0565b60405180910390fd5b6112f6611748565b73ffffffffffffffffffffffffffffffffffffffff168573ffffffffffffffffffffffffffffffffffffffff16148061133c575061133b85611336611748565b6111ea565b5b61137b576040517f08c379a000000000000000000000000000000000000000000000000000000000815260040161137290614280565b60405180910390fd5b6000611385611748565b90506113a581878761139688612333565b61139f88612333565b876119bb565b60006002600086815260200190815260200160002060008873ffffffffffffffffffffffffffffffffffffffff1673ffffffffffffffffffffffffffffffffffffffff1681526020019081526020016000205490508381101561143d576040517f08c379a000000000000000000000000000000000000000000000000000000000815260040161143490614360565b60405180910390fd5b83816114499190614624565b6002600087815260200190815260200160002060008973ffffffffffffffffffffffffffffffffffffffff1673ffffffffffffffffffffffffffffffffffffffff16815260200190815260200160002081905550836002600087815260200190815260200160002060008873ffffffffffffffffffffffffffffffffffffffff1673ffffffffffffffffffffffffffffffffffffffff16815260200190815260200160002060008282546114fd91906145ce565b925050819055508573ffffffffffffffffffffffffffffffffffffffff168773ffffffffffffffffffffffffffffffffffffffff168373ffffffffffffffffffffffffffffffffffffffff167fc3d58168c5ae7397731d063d5bbf3d657854427343f4c083240f7aacaa2d0f62888860405161157a92919061447b565b60405180910390a450505050505050565b611593611748565b73ffffffffffffffffffffffffffffffffffffffff168373ffffffffffffffffffffffffffffffffffffffff1614806115d957506115d8836115d3611748565b6111ea565b5b611618576040517f08c379a000000000000000000000000000000000000000000000000000000000815260040161160f90614280565b60405180910390fd5b6116238383836123f9565b505050565b6116328282612621565b5050565b600061165e836000018373ffffffffffffffffffffffffffffffffffffffff1660001b612701565b905092915050565b60007fd9b67a26000000000000000000000000000000000000000000000000000000007bffffffffffffffffffffffffffffffffffffffffffffffffffffffff1916827bffffffffffffffffffffffffffffffffffffffffffffffffffffffff1916148061173157507f0e89341c000000000000000000000000000000000000000000000000000000007bffffffffffffffffffffffffffffffffffffffffffffffffffffffff1916827bffffffffffffffffffffffffffffffffffffffffffffffffffffffff1916145b80611741575061174082612771565b5b9050919050565b600033905090565b600073ffffffffffffffffffffffffffffffffffffffff168473ffffffffffffffffffffffffffffffffffffffff1614156117c0576040517f08c379a00000000000000000000000000000000000000000000000000000000081526004016117b790614420565b60405180910390fd5b8151835114611804576040517f08c379a00000000000000000000000000000000000000000000000000000000081526004016117fb90614400565b60405180910390fd5b600061180e611748565b905061181f816000878787876119bb565b60005b845181101561192557838181518110611864577f4e487b7100000000000000000000000000000000000000000000000000000000600052603260045260246000fd5b6020026020010151600260008784815181106118a9577f4e487b7100000000000000000000000000000000000000000000000000000000600052603260045260246000fd5b6020026020010151815260200190815260200160002060008873ffffffffffffffffffffffffffffffffffffffff1673ffffffffffffffffffffffffffffffffffffffff168152602001908152602001600020600082825461190b91906145ce565b92505081905550808061191d9061474a565b915050611822565b508473ffffffffffffffffffffffffffffffffffffffff16600073ffffffffffffffffffffffffffffffffffffffff168273ffffffffffffffffffffffffffffffffffffffff167f4a39dc06d4c0dbc64b70af90fd698a233a518aa5d07e595d983b8c0526c8f7fb878760405161199d9291906140f1565b60405180910390a46119b4816000878787876119d1565b5050505050565b6119c98686868686866127eb565b505050505050565b6119f08473ffffffffffffffffffffffffffffffffffffffff16612849565b15611b99578373ffffffffffffffffffffffffffffffffffffffff1663bc197c8187878686866040518663ffffffff1660e01b8152600401611a3695949392919061400d565b602060405180830381600087803b158015611a5057600080fd5b505af1925050508015611a8157506040513d601f19601f82011682018060405250810190611a7e919061358f565b60015b611b1057611a8d61483e565b80611a985750611ad5565b806040517f08c379a0000000000000000000000000000000000000000000000000000000008152600401611acc919061415e565b60405180910390fd5b6040517f08c379a0000000000000000000000000000000000000000000000000000000008152600401611b0790614180565b60405180910390fd5b63bc197c8160e01b7bffffffffffffffffffffffffffffffffffffffffffffffffffffffff1916817bffffffffffffffffffffffffffffffffffffffffffffffffffffffff191614611b97576040517f08c379a0000000000000000000000000000000000000000000000000000000008152600401611b8e906141c0565b60405180910390fd5b505b505050505050565b611bba611bad836106ce565b611bb5611748565b610f58565b611bf9576040517f08c379a0000000000000000000000000000000000000000000000000000000008152600401611bf0906141e0565b60405180910390fd5b611c038282612621565b5050565b611c0f611748565b73ffffffffffffffffffffffffffffffffffffffff168173ffffffffffffffffffffffffffffffffffffffff1614611c7c576040517f08c379a0000000000000000000000000000000000000000000000000000000008152600401611c7390614440565b60405180910390fd5b611c86828261285c565b5050565b6000611cb2836000018373ffffffffffffffffffffffffffffffffffffffff1660001b61293d565b905092915050565b611cc2610d79565b611d01576040517f08c379a0000000000000000000000000000000000000000000000000000000008152600401611cf890614200565b60405180910390fd5b6000600560006101000a81548160ff0219169083151502179055507f5db9ee0a495bf2e6ff9c91a7834c1ba4fdd244a5e8aa4e537bd38aeae4b073aa611d45611748565b604051611d529190613ff2565b60405180910390a1565b600073ffffffffffffffffffffffffffffffffffffffff168373ffffffffffffffffffffffffffffffffffffffff161415611dcc576040517f08c379a0000000000000000000000000000000000000000000000000000000008152600401611dc390614320565b60405180910390fd5b8051825114611e10576040517f08c379a0000000000000000000000000000000000000000000000000000000008152600401611e0790614400565b60405180910390fd5b6000611e1a611748565b9050611e3a818560008686604051806020016040528060008152506119bb565b60005b8351811015611fde576000848281518110611e81577f4e487b7100000000000000000000000000000000000000000000000000000000600052603260045260246000fd5b602002602001015190506000848381518110611ec6577f4e487b7100000000000000000000000000000000000000000000000000000000600052603260045260246000fd5b6020026020010151905060006002600084815260200190815260200160002060008973ffffffffffffffffffffffffffffffffffffffff1673ffffffffffffffffffffffffffffffffffffffff16815260200190815260200160002054905081811015611f68576040517f08c379a0000000000000000000000000000000000000000000000000000000008152600401611f5f90614240565b60405180910390fd5b8181611f749190614624565b6002600085815260200190815260200160002060008a73ffffffffffffffffffffffffffffffffffffffff1673ffffffffffffffffffffffffffffffffffffffff168152602001908152602001600020819055505050508080611fd69061474a565b915050611e3d565b50600073ffffffffffffffffffffffffffffffffffffffff168473ffffffffffffffffffffffffffffffffffffffff168273ffffffffffffffffffffffffffffffffffffffff167f4a39dc06d4c0dbc64b70af90fd698a233a518aa5d07e595d983b8c0526c8f7fb86866040516120569291906140f1565b60405180910390a450505050565b600073ffffffffffffffffffffffffffffffffffffffff168473ffffffffffffffffffffffffffffffffffffffff1614156120d4576040517f08c379a00000000000000000000000000000000000000000000000000000000081526004016120cb90614420565b60405180910390fd5b60006120de611748565b90506120ff816000876120f088612333565b6120f988612333565b876119bb565b826002600086815260200190815260200160002060008773ffffffffffffffffffffffffffffffffffffffff1673ffffffffffffffffffffffffffffffffffffffff168152602001908152602001600020600082825461215f91906145ce565b925050819055508473ffffffffffffffffffffffffffffffffffffffff16600073ffffffffffffffffffffffffffffffffffffffff168273ffffffffffffffffffffffffffffffffffffffff167fc3d58168c5ae7397731d063d5bbf3d657854427343f4c083240f7aacaa2d0f6287876040516121dd92919061447b565b60405180910390a46121f481600087878787612ac7565b5050505050565b612203610d79565b15612243576040517f08c379a000000000000000000000000000000000000000000000000000000000815260040161223a906142c0565b60405180910390fd5b6001600560006101000a81548160ff0219169083151502179055507f62e78cea01bee320cd4e420270b5ea74000d11b0c9f74754ebdbfc544b05a258612287611748565b6040516122949190613ff2565b60405180910390a1565b60006122ad8360000183612c97565b60001c905092915050565b60006122c682600001612d31565b9050919050565b6122e66122d9836106ce565b6122e1611748565b610f58565b612325576040517f08c379a000000000000000000000000000000000000000000000000000000000815260040161231c906142a0565b60405180910390fd5b61232f828261285c565b5050565b60606000600167ffffffffffffffff811115612378577f4e487b7100000000000000000000000000000000000000000000000000000000600052604160045260246000fd5b6040519080825280602002602001820160405280156123a65781602001602082028036833780820191505090505b50905082816000815181106123e4577f4e487b7100000000000000000000000000000000000000000000000000000000600052603260045260246000fd5b60200260200101818152505080915050919050565b600073ffffffffffffffffffffffffffffffffffffffff168373ffffffffffffffffffffffffffffffffffffffff161415612469576040517f08c379a000000000000000000000000000000000000000000000000000000000815260040161246090614320565b60405180910390fd5b6000612473611748565b90506124a38185600061248587612333565b61248e87612333565b604051806020016040528060008152506119bb565b60006002600085815260200190815260200160002060008673ffffffffffffffffffffffffffffffffffffffff1673ffffffffffffffffffffffffffffffffffffffff1681526020019081526020016000205490508281101561253b576040517f08c379a000000000000000000000000000000000000000000000000000000000815260040161253290614240565b60405180910390fd5b82816125479190614624565b6002600086815260200190815260200160002060008773ffffffffffffffffffffffffffffffffffffffff1673ffffffffffffffffffffffffffffffffffffffff16815260200190815260200160002081905550600073ffffffffffffffffffffffffffffffffffffffff168573ffffffffffffffffffffffffffffffffffffffff168373ffffffffffffffffffffffffffffffffffffffff167fc3d58168c5ae7397731d063d5bbf3d657854427343f4c083240f7aacaa2d0f62878760405161261292919061447b565b60405180910390a45050505050565b61262b8282610f58565b6126fd57600160008084815260200190815260200160002060000160008373ffffffffffffffffffffffffffffffffffffffff1673ffffffffffffffffffffffffffffffffffffffff16815260200190815260200160002060006101000a81548160ff0219169083151502179055506126a2611748565b73ffffffffffffffffffffffffffffffffffffffff168173ffffffffffffffffffffffffffffffffffffffff16837f2f8788117e7eff1d82e926ec794901d17c78024a50270940304540a733656f0d60405160405180910390a45b5050565b600061270d8383612d42565b61276657826000018290806001815401808255809150506001900390600052602060002001600090919091909150558260000180549050836001016000848152602001908152602001600020819055506001905061276b565b600090505b92915050565b60007f5a05180f000000000000000000000000000000000000000000000000000000007bffffffffffffffffffffffffffffffffffffffffffffffffffffffff1916827bffffffffffffffffffffffffffffffffffffffffffffffffffffffff191614806127e457506127e382612d65565b5b9050919050565b6127f9868686868686612ddf565b612801610d79565b15612841576040517f08c379a000000000000000000000000000000000000000000000000000000000815260040161283890614260565b60405180910390fd5b505050505050565b600080823b905060008111915050919050565b6128668282610f58565b1561293957600080600084815260200190815260200160002060000160008373ffffffffffffffffffffffffffffffffffffffff1673ffffffffffffffffffffffffffffffffffffffff16815260200190815260200160002060006101000a81548160ff0219169083151502179055506128de611748565b73ffffffffffffffffffffffffffffffffffffffff168173ffffffffffffffffffffffffffffffffffffffff16837ff6391f5c32d9c69d2a47ea670b442974b53935d1edc7fd64eb21e047a839171b60405160405180910390a45b5050565b60008083600101600084815260200190815260200160002054905060008114612abb57600060018261296f9190614624565b90506000600186600001805490506129879190614624565b905060008660000182815481106129c7577f4e487b7100000000000000000000000000000000000000000000000000000000600052603260045260246000fd5b9060005260206000200154905080876000018481548110612a11577f4e487b7100000000000000000000000000000000000000000000000000000000600052603260045260246000fd5b9060005260206000200181905550600183612a2c91906145ce565b8760010160008381526020019081526020016000208190555086600001805480612a7f577f4e487b7100000000000000000000000000000000000000000000000000000000600052603160045260246000fd5b60019003818190600052602060002001600090559055866001016000878152602001908152602001600020600090556001945050505050612ac1565b60009150505b92915050565b612ae68473ffffffffffffffffffffffffffffffffffffffff16612849565b15612c8f578373ffffffffffffffffffffffffffffffffffffffff1663f23a6e6187878686866040518663ffffffff1660e01b8152600401612b2c959493929190614075565b602060405180830381600087803b158015612b4657600080fd5b505af1925050508015612b7757506040513d601f19601f82011682018060405250810190612b74919061358f565b60015b612c0657612b8361483e565b80612b8e5750612bcb565b806040517f08c379a0000000000000000000000000000000000000000000000000000000008152600401612bc2919061415e565b60405180910390fd5b6040517f08c379a0000000000000000000000000000000000000000000000000000000008152600401612bfd90614180565b60405180910390fd5b63f23a6e6160e01b7bffffffffffffffffffffffffffffffffffffffffffffffffffffffff1916817bffffffffffffffffffffffffffffffffffffffffffffffffffffffff191614612c8d576040517f08c379a0000000000000000000000000000000000000000000000000000000008152600401612c84906141c0565b60405180910390fd5b505b505050505050565b600081836000018054905011612ce2576040517f08c379a0000000000000000000000000000000000000000000000000000000008152600401612cd9906141a0565b60405180910390fd5b826000018281548110612d1e577f4e487b7100000000000000000000000000000000000000000000000000000000600052603260045260246000fd5b9060005260206000200154905092915050565b600081600001805490509050919050565b600080836001016000848152602001908152602001600020541415905092915050565b60007f7965db0b000000000000000000000000000000000000000000000000000000007bffffffffffffffffffffffffffffffffffffffffffffffffffffffff1916827bffffffffffffffffffffffffffffffffffffffffffffffffffffffff19161480612dd85750612dd782612de7565b5b9050919050565b505050505050565b60007f01ffc9a7000000000000000000000000000000000000000000000000000000007bffffffffffffffffffffffffffffffffffffffffffffffffffffffff1916827bffffffffffffffffffffffffffffffffffffffffffffffffffffffff1916149050919050565b6000612e64612e5f846144d5565b6144a4565b90508083825260208201905082856020860282011115612e8357600080fd5b60005b85811015612eb35781612e998882612f67565b845260208401935060208301925050600181019050612e86565b5050509392505050565b6000612ed0612ecb84614501565b6144a4565b90508083825260208201905082856020860282011115612eef57600080fd5b60005b85811015612f1f5781612f05888261304e565b845260208401935060208301925050600181019050612ef2565b5050509392505050565b6000612f3c612f378461452d565b6144a4565b905082815260208101848484011115612f5457600080fd5b612f5f8482856146d6565b509392505050565b600081359050612f76816148f4565b92915050565b600082601f830112612f8d57600080fd5b8135612f9d848260208601612e51565b91505092915050565b600082601f830112612fb757600080fd5b8135612fc7848260208601612ebd565b91505092915050565b600081359050612fdf8161490b565b92915050565b600081359050612ff481614922565b92915050565b60008135905061300981614939565b92915050565b60008151905061301e81614939565b92915050565b600082601f83011261303557600080fd5b8135613045848260208601612f29565b91505092915050565b60008135905061305d81614950565b92915050565b6000806040838503121561307657600080fd5b600061308485828601612f67565b925050602061309585828601612f67565b9150509250929050565b600080600080600060a086880312156130b757600080fd5b60006130c588828901612f67565b95505060206130d688828901612f67565b945050604086013567ffffffffffffffff8111156130f357600080fd5b6130ff88828901612fa6565b935050606086013567ffffffffffffffff81111561311c57600080fd5b61312888828901612fa6565b925050608086013567ffffffffffffffff81111561314557600080fd5b61315188828901613024565b9150509295509295909350565b600080600080600060a0868803121561317657600080fd5b600061318488828901612f67565b955050602061319588828901612f67565b94505060406131a68882890161304e565b93505060606131b78882890161304e565b925050608086013567ffffffffffffffff8111156131d457600080fd5b6131e088828901613024565b9150509295509295909350565b60008060006060848603121561320257600080fd5b600061321086828701612f67565b935050602084013567ffffffffffffffff81111561322d57600080fd5b61323986828701612fa6565b925050604084013567ffffffffffffffff81111561325657600080fd5b61326286828701612fa6565b9150509250925092565b6000806000806080858703121561328257600080fd5b600061329087828801612f67565b945050602085013567ffffffffffffffff8111156132ad57600080fd5b6132b987828801612fa6565b935050604085013567ffffffffffffffff8111156132d657600080fd5b6132e287828801612fa6565b925050606085013567ffffffffffffffff8111156132ff57600080fd5b61330b87828801613024565b91505092959194509250565b6000806040838503121561332a57600080fd5b600061333885828601612f67565b925050602061334985828601612fd0565b9150509250929050565b6000806040838503121561336657600080fd5b600061337485828601612f67565b92505060206133858582860161304e565b9150509250929050565b6000806000606084860312156133a457600080fd5b60006133b286828701612f67565b93505060206133c38682870161304e565b92505060406133d48682870161304e565b9150509250925092565b600080600080608085870312156133f457600080fd5b600061340287828801612f67565b94505060206134138782880161304e565b93505060406134248782880161304e565b925050606085013567ffffffffffffffff81111561344157600080fd5b61344d87828801613024565b91505092959194509250565b6000806040838503121561346c57600080fd5b600083013567ffffffffffffffff81111561348657600080fd5b61349285828601612f7c565b925050602083013567ffffffffffffffff8111156134af57600080fd5b6134bb85828601612fa6565b9150509250929050565b6000602082840312156134d757600080fd5b60006134e584828501612fe5565b91505092915050565b6000806040838503121561350157600080fd5b600061350f85828601612fe5565b925050602061352085828601612f67565b9150509250929050565b6000806040838503121561353d57600080fd5b600061354b85828601612fe5565b925050602061355c8582860161304e565b9150509250929050565b60006020828403121561357857600080fd5b600061358684828501612ffa565b91505092915050565b6000602082840312156135a157600080fd5b60006135af8482850161300f565b91505092915050565b6000602082840312156135ca57600080fd5b60006135d88482850161304e565b91505092915050565b60006135ed8383613fd4565b60208301905092915050565b61360281614658565b82525050565b60006136138261456d565b61361d818561459b565b93506136288361455d565b8060005b8381101561365957815161364088826135e1565b975061364b8361458e565b92505060018101905061362c565b5085935050505092915050565b61366f8161466a565b82525050565b61367e81614676565b82525050565b600061368f82614578565b61369981856145ac565b93506136a98185602086016146e5565b6136b281614820565b840191505092915050565b60006136c882614583565b6136d281856145bd565b93506136e28185602086016146e5565b6136eb81614820565b840191505092915050565b60006137036034836145bd565b91507f455243313135353a207472616e7366657220746f206e6f6e204552433131353560008301527f526563656976657220696d706c656d656e7465720000000000000000000000006020830152604082019050919050565b60006137696022836145bd565b91507f456e756d657261626c655365743a20696e646578206f7574206f6620626f756e60008301527f64730000000000000000000000000000000000000000000000000000000000006020830152604082019050919050565b60006137cf6028836145bd565b91507f455243313135353a204552433131353552656365697665722072656a6563746560008301527f6420746f6b656e730000000000000000000000000000000000000000000000006020830152604082019050919050565b6000613835602f836145bd565b91507f416363657373436f6e74726f6c3a2073656e646572206d75737420626520616e60008301527f2061646d696e20746f206772616e7400000000000000000000000000000000006020830152604082019050919050565b600061389b6014836145bd565b91507f5061757361626c653a206e6f74207061757365640000000000000000000000006000830152602082019050919050565b60006138db602b836145bd565b91507f455243313135353a2062616c616e636520717565727920666f7220746865207a60008301527f65726f20616464726573730000000000000000000000000000000000000000006020830152604082019050919050565b60006139416024836145bd565b91507f455243313135353a206275726e20616d6f756e7420657863656564732062616c60008301527f616e6365000000000000000000000000000000000000000000000000000000006020830152604082019050919050565b60006139a7602c836145bd565b91507f455243313135355061757361626c653a20746f6b656e207472616e736665722060008301527f7768696c652070617573656400000000000000000000000000000000000000006020830152604082019050919050565b6000613a0d6029836145bd565b91507f455243313135353a2063616c6c6572206973206e6f74206f776e6572206e6f7260008301527f20617070726f76656400000000000000000000000000000000000000000000006020830152604082019050919050565b6000613a736030836145bd565b91507f416363657373436f6e74726f6c3a2073656e646572206d75737420626520616e60008301527f2061646d696e20746f207265766f6b65000000000000000000000000000000006020830152604082019050919050565b6000613ad96010836145bd565b91507f5061757361626c653a20706175736564000000000000000000000000000000006000830152602082019050919050565b6000613b196025836145bd565b91507f455243313135353a207472616e7366657220746f20746865207a65726f20616460008301527f64726573730000000000000000000000000000000000000000000000000000006020830152604082019050919050565b6000613b7f6032836145bd565b91507f455243313135353a207472616e736665722063616c6c6572206973206e6f742060008301527f6f776e6572206e6f7220617070726f76656400000000000000000000000000006020830152604082019050919050565b6000613be56023836145bd565b91507f455243313135353a206275726e2066726f6d20746865207a65726f206164647260008301527f65737300000000000000000000000000000000000000000000000000000000006020830152604082019050919050565b6000613c4b6038836145bd565b91507f455243313135355072657365744d696e7465725061757365723a206d7573742060008301527f68617665206d696e74657220726f6c6520746f206d696e7400000000000000006020830152604082019050919050565b6000613cb1602a836145bd565b91507f455243313135353a20696e73756666696369656e742062616c616e636520666f60008301527f72207472616e73666572000000000000000000000000000000000000000000006020830152604082019050919050565b6000613d17603b836145bd565b91507f455243313135355072657365744d696e7465725061757365723a206d7573742060008301527f686176652070617573657220726f6c6520746f20756e706175736500000000006020830152604082019050919050565b6000613d7d6039836145bd565b91507f455243313135355072657365744d696e7465725061757365723a206d7573742060008301527f686176652070617573657220726f6c6520746f207061757365000000000000006020830152604082019050919050565b6000613de36029836145bd565b91507f455243313135353a2073657474696e6720617070726f76616c2073746174757360008301527f20666f722073656c6600000000000000000000000000000000000000000000006020830152604082019050919050565b6000613e496029836145bd565b91507f455243313135353a206163636f756e747320616e6420696473206c656e67746860008301527f206d69736d6174636800000000000000000000000000000000000000000000006020830152604082019050919050565b6000613eaf6028836145bd565b91507f455243313135353a2069647320616e6420616d6f756e7473206c656e6774682060008301527f6d69736d617463680000000000000000000000000000000000000000000000006020830152604082019050919050565b6000613f156021836145bd565b91507f455243313135353a206d696e7420746f20746865207a65726f2061646472657360008301527f73000000000000000000000000000000000000000000000000000000000000006020830152604082019050919050565b6000613f7b602f836145bd565b91507f416363657373436f6e74726f6c3a2063616e206f6e6c792072656e6f756e636560008301527f20726f6c657320666f722073656c6600000000000000000000000000000000006020830152604082019050919050565b613fdd816146cc565b82525050565b613fec816146cc565b82525050565b600060208201905061400760008301846135f9565b92915050565b600060a08201905061402260008301886135f9565b61402f60208301876135f9565b81810360408301526140418186613608565b905081810360608301526140558185613608565b905081810360808301526140698184613684565b90509695505050505050565b600060a08201905061408a60008301886135f9565b61409760208301876135f9565b6140a46040830186613fe3565b6140b16060830185613fe3565b81810360808301526140c38184613684565b90509695505050505050565b600060208201905081810360008301526140e98184613608565b905092915050565b6000604082019050818103600083015261410b8185613608565b9050818103602083015261411f8184613608565b90509392505050565b600060208201905061413d6000830184613666565b92915050565b60006020820190506141586000830184613675565b92915050565b6000602082019050818103600083015261417881846136bd565b905092915050565b60006020820190508181036000830152614199816136f6565b9050919050565b600060208201905081810360008301526141b98161375c565b9050919050565b600060208201905081810360008301526141d9816137c2565b9050919050565b600060208201905081810360008301526141f981613828565b9050919050565b600060208201905081810360008301526142198161388e565b9050919050565b60006020820190508181036000830152614239816138ce565b9050919050565b6000602082019050818103600083015261425981613934565b9050919050565b600060208201905081810360008301526142798161399a565b9050919050565b6000602082019050818103600083015261429981613a00565b9050919050565b600060208201905081810360008301526142b981613a66565b9050919050565b600060208201905081810360008301526142d981613acc565b9050919050565b600060208201905081810360008301526142f981613b0c565b9050919050565b6000602082019050818103600083015261431981613b72565b9050919050565b6000602082019050818103600083015261433981613bd8565b9050919050565b6000602082019050818103600083015261435981613c3e565b9050919050565b6000602082019050818103600083015261437981613ca4565b9050919050565b6000602082019050818103600083015261439981613d0a565b9050919050565b600060208201905081810360008301526143b981613d70565b9050919050565b600060208201905081810360008301526143d981613dd6565b9050919050565b600060208201905081810360008301526143f981613e3c565b9050919050565b6000602082019050818103600083015261441981613ea2565b9050919050565b6000602082019050818103600083015261443981613f08565b9050919050565b6000602082019050818103600083015261445981613f6e565b9050919050565b60006020820190506144756000830184613fe3565b92915050565b60006040820190506144906000830185613fe3565b61449d6020830184613fe3565b9392505050565b6000604051905081810181811067ffffffffffffffff821117156144cb576144ca6147f1565b5b8060405250919050565b600067ffffffffffffffff8211156144f0576144ef6147f1565b5b602082029050602081019050919050565b600067ffffffffffffffff82111561451c5761451b6147f1565b5b602082029050602081019050919050565b600067ffffffffffffffff821115614548576145476147f1565b5b601f19601f8301169050602081019050919050565b6000819050602082019050919050565b600081519050919050565b600081519050919050565b600081519050919050565b6000602082019050919050565b600082825260208201905092915050565b600082825260208201905092915050565b600082825260208201905092915050565b60006145d9826146cc565b91506145e4836146cc565b9250827fffffffffffffffffffffffffffffffffffffffffffffffffffffffffffffffff0382111561461957614618614793565b5b828201905092915050565b600061462f826146cc565b915061463a836146cc565b92508282101561464d5761464c614793565b5b828203905092915050565b6000614663826146ac565b9050919050565b60008115159050919050565b6000819050919050565b60007fffffffff0000000000000000000000000000000000000000000000000000000082169050919050565b600073ffffffffffffffffffffffffffffffffffffffff82169050919050565b6000819050919050565b82818337600083830152505050565b60005b838110156147035780820151818401526020810190506146e8565b83811115614712576000848401525b50505050565b6000600282049050600182168061473057607f821691505b60208210811415614744576147436147c2565b5b50919050565b6000614755826146cc565b91507fffffffffffffffffffffffffffffffffffffffffffffffffffffffffffffffff82141561478857614787614793565b5b600182019050919050565b7f4e487b7100000000000000000000000000000000000000000000000000000000600052601160045260246000fd5b7f4e487b7100000000000000000000000000000000000000000000000000000000600052602260045260246000fd5b7f4e487b7100000000000000000000000000000000000000000000000000000000600052604160045260246000fd5b6000601f19601f8301169050919050565b60008160e01c9050919050565b600060443d101561484e576148f1565b60046000803e61485f600051614831565b6308c379a0811461487057506148f1565b60405160043d036004823e80513d602482011167ffffffffffffffff8211171561489c575050506148f1565b808201805167ffffffffffffffff8111156148bb5750505050506148f1565b8060208301013d85018111156148d6575050505050506148f1565b6148df82614820565b60208401016040528296505050505050505b90565b6148fd81614658565b811461490857600080fd5b50565b6149148161466a565b811461491f57600080fd5b50565b61492b81614676565b811461493657600080fd5b50565b61494281614680565b811461494d57600080fd5b50565b614959816146cc565b811461496457600080fd5b5056fea2646970667358221220d4bc11a3bbb1a6efc5985b91f80d780bb1a56fe04c27cbfc966019c60bc17f0364736f6c63430008000033",
  "linkReferences": {},
  "deployedLinkReferences": {}
}